:100000000C9451220C9482220C9482220C94822211
:100010000C9482220C9482220C9482220C948222D0
:100020000C9482220C9482220C9482220C948222C0
:100030000C9482220C9482220C9482220C948222B0
:100040000C9482220C9440CA0C9482220C9482223A
:100050000C9482220C9482220C94C5C20D94D8195F
:100060000C9482220C94FDB50C94F3B50C9482226E
:100070000C9482220C9482220C9482220C94822270
:100080000C9493830C9482220C9482220C948222EE
:100090000C9482220C9482220C9482220D94221AB7
:1000A0000C9482220C9482220C9465830C948222FC
:1000B0000C9482220C9482220C9482220C9437831A
:1000C0000C9482220C9482220C9482220C94822220
:1000D0000C9482220C9482220C9482220C94822210
:1000E0000C948222084AD73B3BCE016E84BCBFFDF4
:1000F000C12F3D6C74319ABD56833DDA3D00C77FF8
:1001000011BED9E4BB4C3E916BAAAABE0000008090
:100110003F05A84CCDB2D44EB93836A9020C50B91F
:10012000918688083CA6AAAA2ABE000000803F004B
:100130000D94D4180D94F9170D940A180D946F1896
:100140000D94A5170D948B180D94DE180D94CA18F4
:100150000D94F2180D9483180D949D180D94C017EA
:100160000D94C0180D94A7180D94B1180D9458183B
:100170000D9404180D9479180D94E8180D946518D1
:100180000D947E270D941F180D94F5170D9460188B
:100190000D9460270D9414180D9493184E414E49F8
:1001A0004E495459494E46CDCCCC3D0AD7233C1735
:1001B000B7D13877CC2B329595E6241FB14F0A0082
:1001C0000020410000C84200401C4620BCBE4CCA72
:1001D0001B0E5AAEC59D7400407A10F35A00A072EF
:1001E0004E18090010A5D4E80000E8764817000072
:1001F000E40B54020000CA9A3B000000E1F5050040
:100200000080969800000040420F000000A0860188
:10021000000000102700000000E803000000006458
:1002200000000000000A00000000000100000000C3
:10023000002C76D888DC674F0823DFC1DFAE59E198
:10024000B1B796E5E3E453C63AE651997696E8E607
:10025000C28426EB898C9B62ED407C6FFCEFBC9CDA
:100260009F40F2BAA56FA5F490055A2AF75C936BEC
:100270006CF9676DC11BFCE0E40D47FEF520E6B5A7
:1002800000D0ED902E0300943577050080841E0881
:100290000000204E0A000000C80C333333330F989F
:1002A0006E12831141EF8D2114893BE65516CFFE66
:1002B000E6DB18D1844B381BF77C1D901DA4BBE4F2
:1002C00024203284725E228100C9F124ECA1E53D34
:1002D000274D33310053442072656164206572728A
:1002E0006F720A00446F6E65207072696E74696E79
:1002F000672066696C650A002569730025696D20B1
:10030000256973002569682025696D2025697300BA
:10031000256964202569682025696D202569730099
:1003200025697920256964202569682025696D2063
:100330002569730020573A0042656420636F6F6C33
:10034000696E672E2E2E00426564206865617469AF
:100350006E672E2E2E0023646566696E6520444507
:100360004641554C545F0000626564004B642000B8
:100370004B6920004B702000504944204175746F38
:1003800074756E652066696E6973686564212050B6
:10039000757420746865206C617374204B702C2018
:1003A0004B6920616E64204B6420636F6E737461CF
:1003B0006E74732066726F6D2062656C6F77206952
:1003C0006E746F20436F6E66696775726174696FD2
:1003D0006E2E680A00504944204175746F74756E22
:1003E00065206661696C6564212074696D656F754F
:1003F000740A00453120544845524D414C20525515
:100400004E415741590042454420544845524D41C0
:100410004C2052554E4157415900546865726D61E8
:100420006C2052756E6177617900453120486561B5
:1004300074696E67206661696C656400426564205A
:1004400068656174696E67206661696C65640048FF
:10045000656174696E67206661696C656400504906
:1004600044204175746F74756E65206661696C65B2
:1004700064212054656D70657261747572652074B5
:100480006F6F20686967680A00204B643A2000207B
:100490004B693A2000204B703A20000A20436C61DF
:1004A0007373696320504944200A002054753A2030
:1004B00000204B753A2000206D61783A2000206DB5
:1004C000696E3A200020643A200020626961733A24
:1004D0002000504944204175746F74756E65207317
:1004E000746172740A00504944204175746F7475C8
:1004F0006E65206661696C6564212054656D706568
:1005000072617475726520746F6F20686967680A1C
:1005100000504944204175746F74756E65206661A2
:10052000696C656421204261642065787472756429
:100530006572206E756D6265720A004572723A20AE
:100540007574663820666F6E74206E6F7420696EE5
:10055000697469616C697A65642E004572723A202B
:100560007574663820666F6E74206E6F7420696EC5
:10057000697469616C697A65642E004572723A200B
:100580007574663820666F6E74206E6F7420696EA5
:10059000697469616C697A65642E004C6F616420CE
:1005A0006D6D004C6F6164206D6D00556E6C6F61F8
:1005B00064206D6D00556E6C6F6164206D6D00463A
:1005C000696C2E204469612E0046696C2E204469B6
:1005D000612E004F6666004F6E004520696E206DEB
:1005E0006D5E3300416476616E63656420536574AB
:1005F00074696E6773004D333033205531204525C3
:10060000692053256900504944204175746F747501
:100610006E6500504944204175746F74756E6500B5
:100620005049442D44005049442D44005049442D24
:1006300049005049442D49005049442D500050492B
:10064000442D500020082046616374002008204695
:10065000616374002008204D6178002008204D61FE
:1006600078002008204D696E002008204D696E003A
:100670004F6666004F6E004175746F74656D700053
:10068000416476616E6365642053657474696E6756
:1006900073005654726176206D696E005654726113
:1006A00076206D696E00566D696E00566D696E003C
:1006B000566D6178204500566D6178204500566D75
:1006C0006178205A00566D6178205A00566D617825
:1006D000205900566D6178205900566D6178205878
:1006E00000566D6178205800416476616E636564E0
:1006F0002053657474696E677300416D617820459D
:1007000000416D6178204500416D6178205A0041BB
:100710006D6178205A00416D6178205900416D610A
:1007200078205900416D6178205800416D61782032
:100730005800412D74726176656C00412D747261B0
:1007400076656C00412D7265747261637400412D91
:100750007265747261637400416363656C00416328
:1007600063656C00416476616E63656420536574F3
:1007700074696E6773004A756E6374696F6E2044A6
:100780006576004A756E6374696F6E204465760005
:10079000416476616E6365642053657474696E6745
:1007A00073004573746570732F6D6D0045737465C8
:1007B00070732F6D6D005A73746570732F6D6D00BB
:1007C0005A73746570732F6D6D005973746570730F
:1007D0002F6D6D005973746570732F6D6D005873B4
:1007E000746570732F6D6D005873746570732F6D21
:1007F0006D00416476616E6365642053657474694D
:100800006E6773003F00496E697469616C697A654F
:1008100020454550524F4D0043616E63656C004961
:100820006E6974004D34323800496E697469616CC8
:10083000697A6520454550524F4D0046696C616D9F
:10084000656E740054656D706572617475726500D3
:1008500053746570732F6D6D004A65726B00416350
:1008600063656C65726174696F6E0056656C6F6369
:100870006974790053657420686F6D65206F6666D2
:100880007365747300436F6E66696775726174692E
:100890006F6E00436D643A2053746F7700436D644C
:1008A0003A204465706C6F7900436D643A2053655B
:1008B0006C662D5465737400436D643A2053572D54
:1008C0004D6F646500436D643A2052657365740032
:1008D000436F6E66696775726174696F6E004F660B
:1008E00066004F6E0043617365206C696768740031
:1008F0004C69676874204272696768746E657373C7
:10090000004C69676874204272696768746E657329
:100910007300436F6E66696775726174696F6E000C
:1009200053746F72652073657474696E67730042E7
:10093000656400426564004E6F7A7A6C65004E6FA4
:100940007A7A6C650046616E207370656564004656
:10095000616E20737065656400436F6E66696775CC
:10096000726174696F6E004C6F616420736574749A
:10097000696E677300526573746F72652066616992
:100980006C736166650053746F726520736574746F
:10099000696E6773005072656865617420504554D4
:1009A0004720636F6E660050726568656174205001
:1009B0004C4120636F6E66004F6666004F6E004FBD
:1009C0007574616765205265636F7665727900435F
:1009D000617365206C6967687400424C546F75637D
:1009E000680050726F6265205A204F6666736574A6
:1009F0000050726F6265205A204F666673657400FE
:100A0000416476616E6365642053657474696E67D2
:100A100073004D61696E004D3730322054256400FB
:100A20004D36303020423020542564004D3730326E
:100A3000203B2564004D3730312054256400436845
:100A4000616E67652066696C616D656E74005072D9
:100A5000656865617420437573746F6D00507265CD
:100A6000686561742050455447005072656865613F
:100A70007420504C41005072656865617420437564
:100A800073746F6D004261636B00436F6E74696EC7
:100A90007565005075726765206D6F72650052450F
:100AA00053554D45204F5054494F4E533A005052E4
:100AB000494E542050415553454400554E4C4F41EA
:100AC000442046494C414D454E54004C4F41442032
:100AD00046494C414D454E540020204E6F7A7A6C69
:100AE000653A200020005061726B696E672E2E2ED1
:100AF00000746F2073746172740066696C616D6557
:100B00006E74206368616E67650057616974206662
:100B10006F720066696C616D656E7420756E6C6FC6
:100B20006164005761697420666F7200506C656182
:100B3000736520776169742E2E2E004E6F7A7A6C61
:100B4000652068656174696E6700746F206865610F
:100B500074206E6F7A7A6C650050726573732062D0
:100B60007574746F6E00746F20636F6E74696E7548
:100B70006500616E642070726573732062757474B1
:100B80006F6E00496E736572742066696C616D6585
:100B90006E740066696C616D656E74206C6F616463
:100BA000005761697420666F7200746F20726573FC
:100BB000756D65207072696E740050726573732074
:100BC000627574746F6E00746F20726573756D65F5
:100BD0002E2E2E005761697420666F722070726924
:100BE0006E740066696C616D656E742070757267F5
:100BF00065005761697420666F72003E2000457879
:100C000074727564656420746F74616C3A00256C4D
:100C1000642E25696D003E20004C6F6E676573740D
:100C2000206A6F622074696D653A003E2000546F3F
:100C300074616C207072696E742074696D653A001D
:100C4000436F6D706C657465643A20005072696E14
:100C50007420436F756E743A20004D61782054659E
:100C60006D703A20313230004D696E2054656D70E0
:100C70003A203500544265643A4550434F53203181
:100C800030304B004D61782054656D703A20333020
:100C900030004D696E2054656D703A203500543037
:100CA0003A204550434F53203130304B005053557C
:100CB0003A2047656E657269630050726F746F63A6
:100CC0006F6C3A20312E3000426175643A20323523
:100CD000303030300052414D505320312E330042DD
:100CE000696C696E656172204C6576656C696E67CA
:100CF000004578747275646572733A2031006874C7
:100D000074703A2F2F6D61726C696E66772E6F72F8
:100D1000670043522D32302050726F00323031392B
:100D20002D30372D3035006275676669782D322E8B
:100D3000302E78004D61726C696E005072696E746D
:100D4000657220537461747300546865726D6973C1
:100D5000746F727300426F61726420496E666F0037
:100D60005072696E74657220496E666F004D6169DC
:100D70006E004D313030300053746F7020707269E6
:100D80006E7400526573756D65207072696E7400C3
:100D90004F7574616765205265636F76657279007F
:100DA0003F0053746F70207072696E74004261630B
:100DB0006B0053746F70004D3235005072696E7461
:100DC0002070617573656400506175736520707281
:100DD000696E74004D3234005072696E7420667210
:100DE0006F6D205344004368616E67652053442053
:100DF00063617264004D32310041626F757420503E
:100E000072696E746572004368616E676520666919
:100E10006C616D656E74004368616E67652066691C
:100E20006C616D656E74004D363030204230004389
:100E30006F6E66696775726174696F6E0054656D77
:100E40007065726174757265004D6F74696F6E00C4
:100E5000526573756D65207072696E74004E6F20F7
:100E6000534420636172640054756E650053746F5F
:100E700070207072696E74005061757365207072B5
:100E8000696E7400496E666F2073637265656E00EB
:100E90004D6F76652058004D6F76652059004D6F77
:100EA0007665205A004578747275646572004578DD
:100EB000747275646572004D6F7665205A004D6FCF
:100EC00076652059004D6F76652058004D6F746926
:100ED0006F6E0044697361626C6520737465707035
:100EE000657273004D383400466164652048656959
:100EF00067687400466164652048656967687400C6
:100F00004F6666004F6E00426564204C6576656CE6
:100F1000696E67004C6576656C20626564004732D7
:100F2000380A47323900486F6D65205A0047323819
:100F3000205A00486F6D652059004732382059000B
:100F4000486F6D652058004732382058004175744D
:100F50006F20686F6D6500473238004D6F766520F1
:100F600061786973004D61696E003F00537461726E
:100F700074207072696E74200043616E63656C004A
:100F80005072696E740043616E6E6F7420656E748A
:100F90006572207375626469723A2000022E2E0019
:100FA0004D61696E005072656865617420504C41F6
:100FB00020456E64005072656865617420504C4134
:100FC00020426564005072656865617420504C4130
:100FD0000054656D7065726174757265005072655C
:100FE00068656174205045544720456E6400507216
:100FF000656865617420504554472042656400501F
:1010000072656865617420504554470054656D7081
:101010006572617475726500436F6F6C646F776E93
:1010200000507265686561742050455447005072E5
:10103000656865617420504C410046616E20737094
:101040006565640046616E20737065656400426585
:101050006400426564004E6F7A7A6C65004E6F7A68
:101060007A6C65004D61696E00466C6F7700466C66
:101070006F770046616E2073706565640046616E2F
:101080002073706565640042656400426564004ECB
:101090006F7A7A6C65004E6F7A7A6C650053706572
:1010A0006564005370656564004D61696E00257567
:1010B0003A2530327500253032753A2530327500C8
:1010C00025756420253032753A25303275001FE0D1
:1010D0002010201020101020102020102010303060
:1010E0000840048003001FE03FF03FF03FF01FE0A6
:1010F0001FE03FF03FF03FF00FC0078003003FFFCD
:10110000F038007030FC3020FC10207810203010B7
:101110002C00D02E31D02F7BD02F7BD02E31D02C55
:1011200000D020301020781020FC1030FC30380027
:10113000703FFFF03FFFF03800703186302387109A
:101140002787902F87D02F03D020301020781020B1
:1011500078102030102F03D02F87D0278790238737
:10116000103186303800703FFFF01FFFF81FFFF886
:1011700004104002082002082004104008208010BB
:1011800041001041000820800410400000001FFFB3
:10119000F81FFFF8436172642072656D6F766564B5
:1011A000004361726420696E736572746564004304
:1011B000522D32302050726F2052656164792E00BA
:1011C0005072696E74696E672E2E2E005072696EB1
:1011D0007420706175736564005072696E7420616B
:1011E000626F727465640000007A4300007A430005
:1011F0000087430000000000000000000000000025
:10120000060C00FE07022603BC017FFE08FE08FE56
:1012100005080806000040F0C8888898781005087E
:1012200008060000C0F88888888888F80505050643
:1012300000012030F830200508080600002070F872
:1012400020202020E00509090600FF2070A8A8B88A
:1012500088887020050606060001E08CEA8C8A0A60
:101260000509090600FFF8A88888888888A8F80575
:101270000A0A0600FE205050505088A8A888700323
:10128000030306000340A040FFFFFFFFFFFFFFFF37
:10129000FFFFFFFFFFFFFFFFFFFFFFFFFFFF00005C
:1012A000000605FF0107070602008080808080009D
:1012B00080030303060105A0A0A0050606060000A2
:1012C00050F85050F8500509090600FF2070A8A0FA
:1012D0007028A87020050707060000C8C810204025
:1012E000989805070706000040A0A040A890680154
:1012F00003030602058080800309090601FF2040E0
:10130000408080804040200309090601FF80404062
:1013100020202040408005070706000020A87020FC
:1013200070A8200505050600012020F820200203F2
:10133000030601FFC04080050101060003F8020218
:1013400002060100C0C005070706000008101020B3
:10135000404080050707060000708898A8C888707C
:1013600003070706010040C040404040E005070772
:10137000060000708808102040F8050707060000E6
:10138000F808103008887005070706000010305074
:1013900090F81010050707060000F880F00808888C
:1013A00070050707060000304080F0888870050748
:1013B00007060000F8081010202020050707060087
:1013C000007088887088887005070706000070889C
:1013D0008878081060020505060100C0C000C0C082
:1013E0000206060601FFC0C000C0408003050506D6
:1013F00001012040804020050303060002F800F8A8
:10140000030505060101804020408005070706000E
:101410000070881020200020050707060000708853
:10142000B8A8B88070050707060000708888F8889B
:101430008888050707060000F04848704848F0050E
:1014400007070600007088808080887005070706FF
:101450000000F04848484848F0050707060000F833
:101460008080F08080F8050707060000F88080F093
:10147000808080050707060000708880809888704B
:10148000050707060000888888F88888880307070A
:10149000060100E04040404040E00507070600002C
:1014A000381010101090600507070600008890A003
:1014B000C0A090880507070600008080808080809B
:1014C000F805070706000088D8A8888888880507D7
:1014D000070600008888C8A89888880507070600BE
:1014E0000070888888888870050707060000F088E3
:1014F00088F080808005070706000070888888A82B
:101500009068050707060000F08888F0A09088051D
:1015100007070600007088807008887005070706B6
:101520000000F82020202020200507070600008862
:10153000888888888870050707060000888888885A
:1015400050502005070706000088888888A8A85002
:10155000050707060000888850205088880507077F
:10156000060000888850202020200507070600007C
:10157000F80810204080F80309090601FFE0808088
:101580008080808080E005070706000080404020C2
:101590001010080309090601FFE020202020202068
:1015A00020E0050303060005205088050101060020
:1015B000FEF803030306010580402005050506002B
:1015C0000070087888780507070600008080F0889A
:1015D0008888F00505050600007080808870050782
:1015E0000706000008087888888878050505060041
:1015F000007088F08070050707060000304840E062
:101600004040400507070600FE708888887808700B
:101610000507070600008080F08888888803070790
:101620000601004000C0404040E00409090601FEF8
:1016300010003010101010906005070706000080A1
:10164000808890E09088030707060100C040404072
:101650004040E0050505060000D0A8A8A8A805059B
:1016600005060000B0C888888805050506000070DA
:10167000888888700507070600FEF0888888F08053
:10168000800507070600FE78888888780808050521
:1016900005060000B0C880808005050506000078BA
:1016A000807008F00507070600002020F8202020A1
:1016B0001805050506000088888898680505050650
:1016C000000088888850200505050600008888A845
:1016D000A85005050506000088502050880507071A
:1016E0000600FE8888885020408005050506000019
:1016F000F8102040F80309090601FF20404040800F
:10170000404040200109090602FF808080808080DF
:101710008080800309090601FF804040402040404E
:10172000408005030306000248A890FF0006090058
:10173000FE06018902FE20FFFE07FE06FE000000F5
:1017400006000701060606020080808080008003F4
:101750000303060103A0A0A00507070600FF5050E1
:10176000F850F850500509090600FE2070A8A07036
:1017700028A870200608080600FF40A84810204846
:1017800054080507070600FF609090609890680174
:1017900003030602038080800207070602FF4080E1
:1017A00080808080400207070602FF804040404062
:1017B00040800505050600008850F850880505059D
:1017C0000600002020F820200204040602FEC0408B
:1017D0004080050101060002F8020202060200C074
:1017E000C004060606010010102040808004060692
:1017F000060100609090909060030606060100408C
:10180000C0404040E0040606060100609010204001
:10181000F0040606060100F020601010E005060640
:1018200006000010305090F810040606060100F083
:1018300080E01010E00406060601006080E0909051
:1018400060040606060100F0101020404004060661
:10185000060100609060909060040606060100603A
:101860009090701060020505060200C0C000C0C064
:101870000207070602FEC0C000C040408005050503
:101880000600001860806018050303060001F800D8
:10189000F8050505060000C0300830C0040707063B
:1018A00001006090106040004005060606000070D0
:1018B00090A8B08070050606060000205088F888C1
:1018C00088050606060000F088F08888F004060601
:1018D000060100609080809060040606060100E02A
:1018E00090909090E0040606060100F080E0808071
:1018F000F0040606060100F080E080808004060601
:10190000060100609080B090600406060601009019
:1019100090F0909090030606060100E040404040A1
:10192000E005060606000038101010906004060658
:1019300006010090A0C0A090900406060601008059
:1019400080808080F005060606000088D8A8A88858
:101950008804060606010090D0B090909005060617
:10196000060000708888888870040606060100E07A
:101970009090E080800407070601FF609090D0B04F
:101980006010040606060100E09090E090900406C6
:1019900006060100609040209060050606060000E3
:1019A000F820202020200406060601009090909048
:1019B0009060040606060100909090F060600506B5
:1019C000060600008888A8A8D88805060606000034
:1019D0008850202050880506060600008888502080
:1019E0002020040606060100F010204080F00306C7
:1019F00006060100E080808080E004060606010003
:101A0000808040201010030606060100E020202000
:101A100020E00503030600032050880501010600AD
:101A2000FEF80202020602048040040404060100DB
:101A3000709090700406060601008080E09090E0AF
:101A4000040404060100708080700406060601008C
:101A500010107090907004040406010060B0C07013
:101A6000040606060100205040E040400406060639
:101A700001FE6090907010600406060601008080F0
:101A8000E09090900306060601004000C04040E050
:101A90000308080601FE200060202020A040040664
:101AA000060601008080A0C0A09003060606010083
:101AB000C040404040E0050404060000D0A8A888CB
:101AC000040404060100E090909004040406010060
:101AD000609090600406060601FEE09090E0808031
:101AE0000406060601FE70909070101004040406AF
:101AF0000100A0D0808004040406010070C030E022
:101B00000406060601004040E0405020040404069C
:101B100001009090907004040406010090906060B1
:101B200005040406000088A8A85004040406010067
:101B3000906060900406060601FE909090709060A0
:101B4000040404060100F02040F00307070601002A
:101B5000204040804040200107070602FF8080802F
:101B600080808080030707060100804040204040BD
:101B70008004020206010350A0FFFFFFFFFFFFFFEA
:101B8000FFFFFFFFFFFFFFFFFFFFFFFFFFFFFFFF65
:101B9000FFFFFFFFFFFFFFFFFFFF00000006000742
:101BA000010606060200800080808080040606068A
:101BB00001FF2070A0A070200507070600FF304835
:101BC00040F04040F8050505060000A8508850A8E0
:101BD0000506060600008850F820F82001070706D1
:101BE00002FF808080008080800407070601FF706C
:101BF0008060906010E0030101060105A006070760
:101C0000060000788494A4948478030505060101F5
:101C100060A06000E00505050600002850A05028DF
:101C2000040303060100F01010040101060102F094
:101C30000607070600007884B4A4A4847804010190
:101C4000060105F004030306010260906005070722
:101C50000600FF2020F8202000F8030505060101FA
:101C600040A02040E0030505060101C0204020C03F
:101C700002020206020440800405050601FF90905E
:101C8000B0D08005060606000078E8E8682828013C
:101C90000101060202800202020602FE40800305E4
:101CA0000506010140C04040E00305050601014072
:101CB000A04000E0050505060000A0502850A00542
:101CC00008080600FF40C040507030781005080832
:101CD0000600FF40C040506808103805080806009C
:101CE000FFC0204030F030781004070706010020C4
:101CF000002060809060050707060000402020500B
:101D0000708888050707060000102020507088881A
:101D10000507070600002050205070888805070737
:101D2000060000285020507088880507070600002C
:101D300050002050708888050707060000205020BA
:101D40005070888805060606000078A0F0A0A0B8AC
:101D50000408080601FE609080809060204004071F
:101D6000070601004020F080E080F004070706012C
:101D7000002040F080E080F00407070601002050BA
:101D8000F080E080F00407070601005000F080E0DA
:101D900080F00307070601008040E0404040E00378
:101DA00007070601002040E0404040E00307070627
:101DB000010040A0E0404040E0030707060100A00A
:101DC00000E0404040E00506060600007048E84894
:101DD000487004070706010050A090D0B09090040E
:101DE00007070601004020609090906004070706F6
:101DF00001002040609090906004070706010020D9
:101E000050609090906004070706010050A0609019
:101E10009090600407070601005000609090906069
:101E200005050506000088502050880408080601B2
:101E3000FF1070B0B0D0D0E080040707060100406A
:101E40002090909090600407070601002040909039
:101E500090906004070706010020509090909060D9
:101E60000407070601005000909090906005070756
:101E700006000010208850202020040606060100DD
:101E800080E09090E0800406060601006090A0A02B
:101E900090A0040707060100402000709090700495
:101EA00007070601002040007090907004070706A5
:101EB0000100205000709090700407070601005048
:101EC000A00070909070040606060100500070900B
:101ED0009070040707060100205020709090700554
:101EE000040406000070A8B0780406060601FE701F
:101EF000808070204004070706010040200060B089
:101F0000C07004070706010020400060B0C07004E4
:101F1000070706010020500060B0C07004060606E6
:101F20000100500060B0C070030707060100804048
:101F300000C04040E0030707060100204000C04009
:101F400040E003070706010040A000C04040E00356
:101F50000606060100A000C04040E0040707060195
:101F6000003060107090906004070706010050A0D8
:101F700000E0909090040707060100402000609068
:101F80009060040707060100204000609090600404
:101F900007070601002050006090906004070706C4
:101FA000010050A0006090906004060606010050F9
:101FB00000609090600505050600002000F80020F4
:101FC00004040406010070B0D0E004070706010015
:101FD0004020009090907004070706010020400008
:101FE0009090907004070706010020500090909098
:101FF00070040606060100500090909070040909D4
:102000000601FE2040009090907090600408080641
:1020100001FE8080E09090E080800408080601FEC8
:102020005000909090709060434F4D4D554E4943F5
:102030004154494F4E0044525952554E0045525258
:102040004F525300494E464F004543484F0045729A
:10205000726F722077726974696E6720746F2045A1
:102060004550524F4D210A00363726033C3D380E6D
:102070002E303E121A1C1808440AFF4308090001BA
:10208000627573793A2070617573656420666F724A
:1020900020696E7075740A00627573793A207061F8
:1020A0007573656420666F7220757365720A0062CD
:1020B0007573793A2070726F63657373696E670A1E
:1020C000004B494C4C206361757365642062792034
:1020D0004B494C4C20627574746F6E2F70696E0A98
:1020E000004B494C4C206361757365642062792014
:1020F000746F6F206D75636820696E6163746976B3
:10210000652074696D65202D2063757272656E742B
:1021100020636F6D6D616E643A2000506C65617371
:1021200065207265736574005052494E54455220C3
:1021300048414C544544004B494C4C45442E2000EA
:102140005072696E7465722068616C7465642E20CB
:102150006B696C6C28292063616C6C6564210A00D2
:1021600053544F505045442E20005072696E746590
:10217000722073746F707065642064756520746F6D
:10218000206572726F72732E2046697820746865BC
:10219000206572726F7220616E6420757365204DC8
:1021A00039393920746F20726573746172742E200E
:1021B0002854656D7065726174757265206973204D
:1021C00072657365742E205365742069742061668E
:1021D0007465722072657374617274696E67290A1E
:1021E000006563686F3A004572726F723A00426927
:1021F0006C696E656172204C6576656C696E6720EE
:10220000477269643A0A0053756264697669646565
:10221000642077697468204341544D554C4C2052DA
:102220004F4D204C6576656C696E67204772696416
:102230003A0A0053544F502063616C6C656420620D
:10224000656361757365206F6620424C546F7563DA
:1022500068206572726F72202D20726573746172CE
:10226000742077697468204D3939390A0053544F06
:10227000502063616C6C6564206265636175736591
:10228000206F6620424C546F756368206572726FD0
:1022900072202D207265737461727420776974687E
:1022A000204D3939390A00486F74656E6420746FA7
:1022B0006F20636F6C640A004F46460A00466164F3
:1022C00065204865696768742000426564204C6534
:1022D00076656C696E6720004661696C6564207480
:1022E0006F20656E61626C6520426564204C657686
:1022F000656C696E670A00496E76616C6964206D71
:102300006573682E0A00202844525952554E290000
:10231000473239204175746F20426564204C6576E0
:10232000656C696E67003F20284C2C522C462C426D
:1023300029206F7574206F6620626F756E64732E2E
:102340000A003F2856296572626F7365206C6576B6
:10235000656C20697320696D706C61757369626C5E
:10236000652028302D34292E0A00426164205A202D
:1023700076616C75650A004E6F2062696C696E65E6
:10238000617220677269640A004D3630303A205419
:102390006F6F20636F6C6400486F74656E642074A7
:1023A0006F6F20636F6C640A00496E7365727420EE
:1023B00066696C616D656E7420616E642070726513
:1023C000737320627574746F6E0A00507265737354
:1023D00020627574746F6E20746F2068656174205C
:1023E0006E6F7A7A6C650A00496E73657274206646
:1023F000696C616D656E7420616E642070726573C6
:102400007320627574746F6E20286F72204D3130A6
:1024100038290A004D32342053256C642054256C31
:1024200064004D3233202573004739322E39204560
:10243000257300473120462564004739322E392064
:102440005A2573004731205A302046323030004739
:102450003120582573205925732046333030300001
:102460004D34323020532569205A2573004D3130C8
:10247000362050256920532569004D3130392053CD
:102480002569004D31393020532569004739322EF6
:10249000392045305A300A47315A320A47323852C9
:1024A000305859004D343230205330205A300020FB
:1024B000496E76616C6964206578747275646572C2
:1024C0002000536C6565702E2E2E00486F6D6520C0
:1024D00058592066697273740A00486F6D652058F8
:1024E0005920666972737400205A3A200020593AC4
:1024F000200042656420583A20004D6573682070C2
:102500006F696E742063616E6E6F742062652072F5
:1025100065736F6C7665640A00436C69636B207445
:102520006F20726573756D652E2E2E004E6F206DB7
:102530006F76652E00456E642066696C65206C6957
:1025400073740A00426567696E2066696C65206C69
:102550006973740A00286E6F2066696C65290043F0
:10256000757272656E742066696C653A200053441A
:10257000207072696E74696E6720627974652000DC
:102580004E6F74205344207072696E74696E670ACE
:10259000005072696E742074696D653A20000A53A8
:1025A000746174733A2046696C616D656E74207550
:1025B0007365643A20002C204C6F6E67657374203D
:1025C0006A6F623A2000546F74616C2074696D65A3
:1025D0003A200053746174733A20002C20466169DC
:1025E0006C65643A20002C2046696E6973686564E6
:1025F0003A20005072696E74733A2000537461740B
:10260000733A20004520436F6F6C696E672E2E2E43
:1026100000452048656174696E672E2E2E006F6636
:102620006600492044203D2036202820444542555C
:10263000473A004D3131332053006F6B0043522D28
:1026400032302050726F204F46462E004348414D95
:102650004245525F54454D504552415455524500F4
:102660004D4F54494F4E5F4D4F44455300544845DC
:10267000524D414C5F50524F54454354494F4E00C8
:102680004155544F5245504F52545F53445F535439
:10269000415455530050524F4D50545F5355505074
:1026A0004F525400454D455247454E43595F5041A6
:1026B0005253455200434153455F4C494748545F8C
:1026C0004252494748544E45535300544F47474C94
:1026D000455F4C494748545300534F465457415265
:1026E000455F504F574552004255494C445F504555
:1026F0005243454E54004C4556454C494E475F4465
:10270000415441005A5F50524F4245004155544F89
:102710004C4556454C005052494E545F4A4F42007A
:1027200050524F4752455353004155544F52455014
:102730004F52545F54454D5000564F4C554D4554E3
:1027400052494300454550524F4D0042494E415277
:10275000595F46494C455F5452414E5346455200DD
:1027600053455249414C5F584F4E5F584F464600C3
:102770004649524D574152455F4E414D453A4D6194
:10278000726C696E206275676669782D322E302E04
:102790007820284769746875622920534F55524341
:1027A000455F434F44455F55524C3A6874747073AB
:1027B0003A2F2F6769746875622E636F6D2F4D61B4
:1027C000726C696E4669726D776172652F4D6172C8
:1027D0006C696E2050524F544F434F4C5F564552D8
:1027E00053494F4E3A312E30204D414348494E45D2
:1027F0005F545950453A43522D32302050726F2069
:1028000045585452554445525F434F554E543A3102
:1028100020555549443A62656231653864332D6606
:102820003331642D343361362D383063332D3332F8
:10283000353332313039366666650A002F2F200075
:102840004D31343520533C696E6465783E206F7598
:1028500074206F662072616E67652028302D3129E3
:102860000A00205400205200416363656C65726168
:1028700074696F6E3A2050003F4A206F7574206F64
:10288000662072616E67652028302E303120746FAB
:1028900020302E33290A00205A00205900580020E9
:1028A000204D61783A2000205A002059005800201D
:1028B000204D696E3A2000536F667420656E647314
:1028C000746F70733A200020466C6F773A20005086
:1028D000726F7465637465642050696E0A003A20F3
:1028E0000020536572766F2000206F7574206F662C
:1028F0002072616E67650A00536572766F20002052
:10290000643A0020693A0020703A00496E76616CA2
:1029100069642065787472756465720A0020643A8F
:102920000020693A0020703A0064697300656E0007
:1029300043290A0061626C656420286D696E207409
:10294000656D702000436F6C6420657874727564E7
:1029500065732061726520004D65736820706F6932
:102960006E742063616E6E6F742062652072657391
:102970006F6C7665640A004D34323120696E636F86
:10298000727265637420706172616D657465722026
:1029900075736167650A004F6666736574732061BD
:1029A00070706C696564004572723A20546F6F20D4
:1029B0006661722100546F6F206661722066726FCB
:1029C0006D207265666572656E636520706F696EF5
:1029D000740A00454550524F4D204F4B0A003F5A54
:1029E000206F7574206F662072616E676520282DD8
:1029F000323020746F203230290A0050726F6265C5
:102A0000205A204F66667365743A200043617365EF
:102A1000206C696768743A200043617365206C69B3
:102A20006768743A206F66660A004F4646004F4E4C
:102A300000506F7765722D6C6F7373207265636FD2
:102A4000766572792000496E76616C6964206578DC
:102A50007472756465720A004361703A0047322FE0
:102A600047332062616420706172616D65746572C4
:102A7000730A00220A00656E7175657565696E6777
:102A80002022006F6B00526573656E643A200073FC
:102A9000660A0046696C65207472616E73666572C1
:102AA000206661696C65640A0073630A004B6942C1
:102AB0002F730A00207472616E7366657220636FF3
:102AC0006D706C65746564204020004461746173AE
:102AD000747265616D2074696D656F75740A00723A
:102AE0007300526573656E642072657175657374E9
:102AF00020002920436F72727570740A00426C6F57
:102B0000636B280053444361726420494F2045722F
:102B1000726F720A006F6B00446174617374726546
:102B2000616D207061636B65742064617461206203
:102B30007566666572206F76657272756E0A0044FE
:102B400061746173747265616D207061636B65742B
:102B5000206F7574206F66206F726465720A00447E
:102B600061746173747265616D20696E697420654A
:102B700072726F722028696E76616C696420746F5E
:102B80006B656E290A00736F00206279746573208B
:102B90006578706563746564290A004461746173C3
:102BA000747265616D20696E697469616C697A65BA
:102BB0006420280053544F505045442E200050723A
:102BC000696E7465722073746F70706564206475CB
:102BD0006520746F206572726F72732E204669785B
:102BE00020746865206572726F7220616E64207552
:102BF0007365204D39393920746F207265737461A3
:102C000072742E202854656D7065726174757265DA
:102C10002069732072657365742E20536574206972
:102C20007420616674657220726573746172746970
:102C30006E67290A004E6F20436865636B73756D7C
:102C40002077697468206C696E65206E756D6265A9
:102C5000722C204C617374204C696E653A20004ED2
:102C60006F20436865636B73756D207769746820A6
:102C70006C696E65206E756D6265722C204C617397
:102C800074204C696E653A2000636865636B7375E8
:102C90006D206D69736D617463682C204C61737471
:102CA000204C696E653A20004C696E65204E756D4A
:102CB000626572206973206E6F74204C617374209A
:102CC0004C696E65204E756D6265722B312C204CFF
:102CD000617374204C696E653A20004D31313000CB
:102CE000290A002062797465733B206372632000B7
:102CF00053657474696E67732053746F72656420D2
:102D00002800454550524F4D206461746173697AC3
:102D100065206572726F722E0A00290A002062799E
:102D20007465733B2063726320002073746F726557
:102D3000642073657474696E677320726574726958
:102D400065766564202800202863616C63756C617A
:102D500074656429210A0020213D20004545505218
:102D60004F4D20435243206D69736D617463682039
:102D70002D202873746F7265642920002053697AAE
:102D8000653A2000496E6465783A2000204D6172F2
:102D90006C696E3D563637290A00454550524F4DF5
:102DA0002076657273696F6E206D69736D617463EF
:102DB000682028454550524F4D3D0048617264637C
:102DC0006F6465642044656661756C742053657436
:102DD00074696E6773204C6F616465640A00F40166
:102DE0000000F401000064000000E803000000009F
:102DF000FA430000FA43000020410000484200006E
:102E0000A0420000A0420000C8430000BA423A0AB3
:102E10000020204D36303320002055004C004669FC
:102E20006C616D656E74206C6F61642F756E6C6F74
:102E30006164206C656E677468733A0A0020204DE7
:102E4000383531205A005A2D50726F6265204F6616
:102E5000667365740020204D343133205300506F69
:102E60007765722D4C6F7373205265636F76657250
:102E7000793A0A0020440020490020204D333034A4
:102E800020500020440020490020204D33303120C4
:102E900050005049442073657474696E67733A0A30
:102EA0000020460020420020480020204D313435CB
:102EB0002053004D6174657269616C2068656174AE
:102EC000757020706172616D65746572733A0A0085
:102ED000204A0020204732392057204900205A003C
:102EE00020204D3432302053004175746F204265EC
:102EF00064204C6576656C696E673A0A00205A005A
:102F000020590020204D323036205800486F6D6522
:102F1000206F66667365743A0A00204A00205400E8
:102F200020530020204D323035204200204A3C6A98
:102F3000756E635F6465763E00416476616E6365BD
:102F4000643A20423C6D696E5F7365676D656E74AF
:102F50005F74696D655F75733E20533C6D696E5F8C
:102F600066656564726174653E20543C6D696E5F90
:102F700074726176656C5F66656564726174653EE6
:102F80000020540020520020204D323034205000C8
:102F9000416363656C65726174696F6E2028756E3C
:102FA0006974732F7332293A20503C7072696E74C1
:102FB0005F616363656C3E20523C7265747261634D
:102FC000745F616363656C3E20543C747261766526
:102FD0006C5F616363656C3E0A00204500205A0007
:102FE00020590020204D3230312058004D61786941
:102FF0006D756D20416363656C65726174696F6E98
:103000002028756E6974732F7332293A0A0020459F
:1030100000205A0020590020204D32303320580023
:103020004D6178696D756D20666565647261746562
:10303000732028756E6974732F73293A0A005374CC
:103040006570732070657220756E69743A0A00208D
:10305000204D3230302044300A0020204D323030B4
:103060002044002044697361626C65640A0046690B
:103070006C616D656E742073657474696E67733A04
:103080000020204D3134392043203B20556E697497
:103090007320696E2043656C736975730A0020287C
:1030A0006D6D29002020473231202020203B205503
:1030B0006E69747320696E206D6D00486F6D696E66
:1030C00067206661696C6564006F70656E005452BC
:1030D00049474745524544003A20007A5F6D696E82
:1030E00000795F6D696E00785F6D696E0052657082
:1030F0006F7274696E6720656E6473746F7020738D
:1031000074617475730A00205A3A0020593A0020FD
:10311000436F756E7420583A0020453A00205A3AA1
:103120000020593A00583A0020746F6F206C6F6E7F
:103130006720657874727573696F6E20707265763A
:10314000656E7465640A0020636F6C642065787432
:10315000727573696F6E2070726576656E746564E2
:103160000A00000000000000000000000000000055
:10317000484200004842000000415761726E696E8B
:10318000673A20486F6D696E672042756D70204404
:10319000697669736F72203C20310A0002020400D4
:1031A00000A0400000A0400000004000007A430062
:1031B000007A4300008743FFFFFF0000000100008A
:1031C00000010000800055555500000040003333D9
:1031D0003300AAAA2A004992240000002000C771E7
:1031E0001C0099991900D1451700555515003BB1A0
:1031F00013002449120011111100000010000F0FDC
:103200000F00E3380E0043790D00CCCC0C00C33026
:103210000C00E8A20B0064210B00AAAA0A00703D72
:103220000A009DD80900427B090092240900DCD3E2
:103230000800888808001042080000000800F0C15B
:1032400007008787070075500700711C07003EEBD9
:103250000600A1BC06006990060066660600703E86
:1032600006006118060017F4050074D105005BB074
:103270000500B290050062720500555505007839C9
:103280000500B81E0500050505004EEC040087D4B6
:103290000400A1BD040090A7040049920400C17D70
:1032A0000400EE690400C7560400444404005C3284
:1032B00004000821040041100400000004003FF055
:1032C0000300F8E0030026D20300C3C30300CCB51B
:1032D00003003AA803000A9B0300388E0300C08154
:1032E00003009F750300D0690300505E03001D5367
:1032F000030034480300913D0300333303001629D3
:103300000300381F030097150300300C030003036C
:1033100003000BFA020049F10200BAE802005CE087
:1033200002002DD802002DD0020059C80200B0C002
:10333000020031B90200DAB10200AAAA0200A0A379
:103340000200BC9C0200FA9502005C8F0200DF883C
:10335000020082820200457C02002776020027706C
:103360000200436A02007C640200D05E02003F5902
:103370000200C8530200FFFDFCFAF8F6F4F2F0EE8A
:10338000ECEAE9E7E5E3E1E0DEDCDAD9D7D5D4D24F
:10339000D0CFCDCBCAC8C7C5C3C2C0BFBDBCBAB9E8
:1033A000B7B6B4B3B2B0AFADACAAA9A8A6A5A4A253
:1033B000A1A09E9D9C9A99989795949392908F8E98
:1033C0008D8B8A8988878684838281807F7E7D7BBE
:1033D0007A797877767574737271706F6E6D6C6BC5
:1033E0006A696867666564636261605F5E5D5C5BB5
:1033F0005A5958585756555453525150504F4E4D94
:103400004C4B4A4A4948474646454443424241405C
:103410003F3E3E3D3C3B3B3A393838373635353414
:103420003332323130302F2E2E2D2C2B2B2A2929BE
:1034300028272726252524232322212120201F1E5B
:103440001E1D1C1C1B1B1A191918181716161515EA
:1034500014131312121111100F0F0E0E0D0D0C0C70
:103460000B0A0A09090808070706060505040403EC
:1034700003020201000024F4D43050C38E20C2A203
:103480004017828B7011127A910D816CD90AA86154
:10349000E108C7586607615143061E4B5D05C145EB
:1034A000A7041A411104093D9803713931034036CC
:1034B000DB0265339102D4305402802E1D02632C4E
:1034C000EE01752AC501B028A001102781018F25C2
:1034D00064012B244B01E0223401AC211F018D201B
:1034E0000D01801FFC00841EED00971DDF00B81C3D
:1034F000D200E61BC600201BBC00641AB200B21941
:10350000A8000A19A0006A189900D1179100401765
:103510008B00B516840031167E00B31579003A157C
:103520007300C7146F0058146A00EE136600881306
:10353000630025135E00C7125B006C125700151262
:103540005400C111510070114F0021114B00D610D1
:1035500049008D1047004610440002104200C00F81
:103560004000800F3E00420F3C00060F3B00CB0E98
:103570003800930E37005C0E3500270E3400F30D33
:103580003200C10D3100900D3000600D2E00320D63
:103590002D00050D2C00D90C2B00AE0C2900850C3C
:1035A00029005C0C2700350C27000E0C2600E80BC8
:1035B0002400C40B2400A00B23007D0B23005A0B16
:1035C0002100390B2100180B2000F80A1F00D90A2E
:1035D0001E00BB0A1E009D0A1D00800A1D00630A12
:1035E0001C00470A1B002C0A1B00110A1A00F709CD
:1035F0001A00DD091900C4091900AB091900920964
:1036000017007B091800630917004C0916003609DA
:103610001600200916000A091500F5081500E00833
:103620001400CC081400B8081400A4081400900872
:1036300013007D0812006B0813005808120046089A
:1036400012003408110023081100120811000108AB
:103650001100F0071000E0071000D0071000C007AD
:103660001000B0070F00A107100091070E0083079C
:103670000F0074070F0065070E0057070E0049077B
:103680000E003B070D002E070E0020070D0013074C
:103690000D0006070D00F9060C00ED060D00E00612
:1036A0000C00D4060C00C8060C00BC060C00B006CA
:1036B0000C00A4060B0099060C008D060B00820678
:1036C0000B0077060B006C060B0061060A0057061C
:1036D0000B004C060A0042060A0038060A002E06B5
:1036E0000A0024060A001A060A0010060900070646
:1036F0000A00FD050900F4050900EB050900E205D3
:103700000900D9050900D0050900C7050900BE0553
:103710000900B5050800AD050800A50509009C05D0
:103720000800940508008C050800840508007C0545
:103730000800740508006C050700650508005D05B4
:103740000700560508004E0507004705070040051D
:10375000080038050700310507002A050700230582
:1037600007001C050600160507000F0507000805E1
:10377000060002050700FB040600F5040700EE043E
:103780000600E8040600E2040700DB040600D50496
:103790000600CF040600C9040600C3040600BD04E9
:1037A0000600B7040600B1040500AC040600A60438
:1037B0000600A00405009B04060095040500900483
:1037C00006008A04050085040500800406007A04CA
:1037D000050075040500700405006B04050066040F
:1037E0000500610405005C0405005704050052044F
:1037F00005004D04050048040500430405003E048F
:1038000004003A04050035040500300404002C04CB
:10381000050027040400230405001E0404001A0404
:10382000040016040500110404000D04040009043A
:1038300005000404040000040400FC030400F80371
:103840000400F4030400F0030400EC030400E803A4
:103850000400E4030400E0030400DC030400D803D4
:103860000400D4030400D0030400CC030400C80304
:103870000300C503030024F404D9201BC40C5C0E10
:103880009804C4095F0265077101F405F900FB049F
:10389000B30048048700C1036900580355000303BF
:1038A0004500BE023A008402310053022A00290278
:1038B000250004022000E4011C00C8011900AF012A
:1038C00017009801140084011300710110006101B8
:1038D000100051010E0043010D0036010B002B01B9
:1038E0000B0020010B00150109000C010900030168
:1038F0000800FB000800F3000800EB000700E400EC
:103900000600DE000600D8000600D2000600CC004B
:103910000500C7000500C2000500BD000400B90095
:103920000400B5000400B1000400AD000400A900CB
:103930000400A5000300A20003009F0004009B00F8
:10394000030098000300950002009300030090001C
:1039500003008D0002008B00030088000200860037
:10396000020084000300810002007F0002007D004D
:1039700002007B000200790002007700010076005F
:1039800002007400020072000100710002006F006A
:1039900002006D0001006C0002006A000100690075
:1039A000020067000100660001006500010064007C
:1039B00002006200010061000100600001005F0080
:1039C00002005D0001005C0001005B0001005A0084
:1039D0000100590001005800010057000100560085
:1039E0000100550001005400010053000000530085
:1039F00001005200010051000100500001004F0081
:103A000001004E0000004E0001004D0001004C007E
:103A100001004B0000004B0001004A00010049007A
:103A20000100480000004800010047000100460076
:103A30000000460001004500000045000100440070
:103A4000010043000000430001004200000042006A
:103A500001004100000041000100400001003F0062
:103A600000003F0001003E0000003E0001003D005C
:103A700000003D0001003C0000003C0000003C0054
:103A800001003B0000003B0001003A0000003A004A
:103A90000100390000003900010038000000380042
:103AA0000000380001003700000037000100360038
:103AB000000036000000360001003500000035002F
:103AC0000000350001003400000034000000340024
:103AD0000100330000003300000033000100320019
:103AE000000032000000320001003100000031000F
:103AF0000000310001003000000030000000300004
:103B000001002F0000002F0000002F0000002F00F8
:103B100001002E0000002E0000002E0001002D00EC
:103B200000002D0000002D0000002D0001002C00E1
:103B300000002C0000002C0000002C0001002B00D5
:103B400000002B0000002B0000002B0001002A00C9
:103B500000002A0000002A0000002A0001002900BD
:103B600000002900000029000000290000002900B1
:103B700001002800000028000000280000002800A4
:103B80000000280001002700000027000000270097
:103B9000000027000000270001002600000026008A
:103BA000000026000000260000002600010025007D
:103BB0000000250000002500000025000000250071
:103BC0000000250001002400000024000000240063
:103BD0000000240000002400010023000000230056
:103BE0000000230000002300000023000000230049
:103BF000000023000100220000002200000022003B
:103C0000000022000000220000002200010021002C
:103C10000000210000002100000021000000210020
:103C20000000210000002100010020000000200011
:103C30000000200000002000000020000000200004
:103C4000000020000000200001001F0000001F00F5
:103C500000001F0000001F0000001F0000001F00E8
:103C600000001F0001001E0000001E0000001E00DA
:103C700000001E00000039300000332500008719C5
:103C80000000B00F0000DB080000BD04000074025B
:103C900000003F010000626564002C20737973749A
:103CA000656D2073746F7070656421204865617460
:103CB00065725F49443A200042656420686561741A
:103CC000696E67206661696C656400486561746946
:103CD0006E67206661696C65640042454420544803
:103CE00045524D414C2052554E4157415900546860
:103CF00065726D616C2052756E6177617900453136
:103D00002048656174696E67206661696C6564004E
:103D100048656174696E67206661696C6564004519
:103D20003120544845524D414C2052554E41574147
:103D30005900546865726D616C2052756E617761CF
:103D40007900453120544845524D414C2052554E42
:103D5000415741590042454420544845524D414C39
:103D60002052554E4157415900546865726D616C3F
:103D70002052756E61776179004531204572723A43
:103D8000204D415854454D50004572723A204D41E6
:103D90005854454D5020424544004D415854454DDE
:103DA000502074726967676572656400453120450B
:103DB00072723A204D494E54454D50004572723A48
:103DC000204D494E54454D5020424544004D494EEA
:103DD00054454D5020747269676765726564004D83
:103DE00038342058302059323030205A20450020B5
:103DF0002F002042403A0020403A0020573A007CF1
:103E00003C3E5E2B3D3F2F5B5D3B2C2A225C0070CD
:103E1000012C0190012701B0012201C0011D01F018
:103E20000118011002130130020E01600209019015
:103E3000020401C002FF000003FA004003F5008005
:103E400003F000D003EB002004E6007004E100E082
:103E500004DC004005D700C005D2004006CD00D0EC
:103E600006C8008007C3003008BE00F008B900C0D3
:103E700009B400B00AAF00B00BAA00D00CA5000036
:103E80000EA000500F9B00C0109600501291000031
:103E9000148C00C0158700B0178200B0197D00D0C7
:103EA0001B7800001E730040206E0090226900F015
:103EB00024640040275F0090295A00E02B55001031
:103EC0002E500020304B0010324600E0334100906D
:103ED000353C001037370070383200A0392D00B063
:103EE0003A2800A03B2300603C1E00103D190090C2
:103EF0003D1400103E0F00703E0A00C03E05000059
:103F00003F0000403FFBFF803FF6FFC03FF1FF4313
:103F1000616E6E6F74206F70656E20737562646978
:103F200072200053442063617264206F6B0A006F3B
:103F300070656E526F6F74206661696C65640A000B
:103F4000766F6C756D652E696E6974206661696C3B
:103F500065640A00534420696E6974206661696C67
:103F60000A004D3234004D323320257300577269F8
:103F700074696E6720746F2066696C653A20002E44
:103F80000A006F70656E206661696C65642C20465E
:103F9000696C653A20002E0A006F70656E206661BC
:103FA000696C65642C2046696C653A200046696C32
:103FB000652073656C65637465640A002053697AD3
:103FC000653A200046696C65206F70656E65643ADD
:103FD0002000667265736800646F696E6700206612
:103FE000696C653A20004E6F772000454E4420539F
:103FF0005542524F5554494E450A002220706F7366
:10400000002220706172656E743A2200535542524C
:104010004F5554494E452043414C4C2074617267C2
:1040200065743A2200747279696E6720746F206338
:10403000616C6C207375622D67636F6465206669BF
:104040006C6573207769746820746F6F206D616E82
:1040500079206C6576656C732E204D4158206C6517
:1040600076656C2069733A310A002E0A0044656C4B
:104070006574696F6E206661696C65642C204669A1
:104080006C653A200046696C652064656C657465F2
:10409000643A0057726974696E6720746F206669AC
:1040A0006C653A20002E0A006F70656E20666169AB
:1040B0006C65642C2046696C653A2000FFE0FFD1F6
:1040C0001000FFFEFFD0FFE0FFC1FFD1E240A0C81B
:1040D000A6A22FF800238127AC00AFFF64A5FF64E0
:1040E000FF64A4FFD0FFFE00002100240027002A67
:1040F000002D003000330001010000040107010A17
:104100000100002200250028002B002E0031003481
:104110000002010000050108010B0100002000233E
:1041200000260029002C002F0032000001000003AF
:10413000010601090105050505070508080808022B
:104140000202020A0A080804040404010101010130
:104150000101010303030303030303040707070C1F
:104160000C0C0C0C0C0C0C020202020606060606D5
:104170000606060B0B0B0B0B0B0B0B010210202082
:1041800008081020401020408002010201080402AB
:104190000101020408102040808040201008040221
:1041A000018004020180402010080402010804027A
:1041B0000101020408102040800102040810204080
:1041C0008000000A0B02090C0D0E08070304010011
:1041D00000000000000000000000000000000000DF
:1041E000000000000000000000000000001211109C
:1041F00000000000000000000000000000000000BF
:10420000000000000000004D31303030205300200D
:1042100020506C616E6E6572427566666572427999
:104220007465733A20002046726565204D656D6F98
:1042300072793A2000436F6D70696C65643A204171
:10424000707220323420323032300A00207C20411B
:104250007574686F723A202842656E205475726ECC
:1042600065722C204D6F646966696564204D6172CA
:104270006C696E20322E30290A00323031392D30EF
:10428000372D303500204C61737420557064617493
:1042900065643A20006275676669782D322E302E8B
:1042A000780A004D61726C696E0020536F667477F6
:1042B0006172652052657365740A002057617463EA
:1042C00068646F672052657365740A002042726FDC
:1042D000776E206F75742052657365740A002045EF
:1042E000787465726E616C2052657365740A005053
:1042F0006F77657255700A0073746172740A006199
:1043000075746F25632E67004C6F6164696E67205A
:1043100073657474696E67732066726F6D205344A1
:104320000A006572726F722077726974696E672015
:10433000746F2066696C650A00446F6E6520736156
:1043400076696E672066696C652E0A004D32390009
:10435000456E6473746F7073202563202563202578
:104360006320256300205A3A0020593A0020583A29
:1043700000656E6473746F7073206869743A20000E
:10438000473237004D6F766520302E3032356D6DF7
:10439000004D6F766520302E316D6D004D6F766566
:1043A00020316D6D004D6F76652031306D6D004DA3
:1043B0006F7665206178697300486F74656E64205C
:1043C000746F6F20636F6C640045787472756465F8
:1043D00072004D6F7665205A004D6F76652059004A
:1043E0004D6F766520580050726F62696E67206667
:1043F00061696C65640A0050726F62696E6720665D
:1044000061696C656400486F6D65202573257325AF
:1044100073206669727374002066697273740A008F
:10442000486F6D652000220A00556E6B6E6F776EC7
:1044300020636F6D6D616E643A20220020746F6F8F
:10444000206C6F6E6720657874727573696F6E206B
:1044500070726576656E7465640A0020636F6C64C3
:1044600020657874727573696F6E207072657665F9
:104470006E7465640A00204500205A00205900200F
:104480004D39322058002E0A006F70656E2066612B
:10449000696C65642C2046696C653A200000C00098
:1044A000C80011241FBECFEFD1E2DEBFCDBF00E0B8
:1044B0000CBF13E0A0E0B2E0E4E2F9E702E00BBFDA
:1044C00002C007900D92A039B107D9F72BE1A0E9FE
:1044D000B3E001C01D92A130B207E1F712E2C0E5DE
:1044E000D2E200E006C021970109802FFE010F945F
:1044F000FA3BCF34D10780E00807A9F70F94AB2827
:104500000D94813C0C9400008F929F92AF92BF92C9
:10451000CF92DF92EF92FF92CF93FC01C080D180C7
:10452000E280F38020E030E0A901C701B6010F94DA
:10453000723287FF93C0C701B601905820E030E087
:1045400048EC52E40F94D73220E030E040EA50E4E7
:104550000F94FA3820E030E040E251E40F94D6396D
:104560000F943E3A6B017C0180E28093C60C60E2BE
:10457000F0E1CF16F7E2DF06E104F1048CF0C701A9
:10458000B60120E137E240E050E00F94BE38CA01A6
:10459000B9012AE030E040E050E00F94BE38605DA1
:1045A0006093C70C60E288EEC81683E0D806E10489
:1045B000F1048CF0C701B60128EE33E040E050E092
:1045C0000F94BE38CA01B9012AE030E040E050E063
:1045D0000F94BE38605D6093C80C60E2E4E6CE16CE
:1045E000D104E104F1048CF0C701B60124E630E007
:1045F00040E050E00F94BE38CA01B9012AE030E033
:1046000040E050E00F94BE38605D6093C90C8AE0D2
:10461000882E912CA12CB12CC701B601A5019401C3
:104620000F94BE38C62FCA01B901A50194010F9499
:10463000BE38605D6093CA0C8EE28093CB0CC05D87
:10464000C093CC0C86EC9CE0CF91FF90EF90DF9074
:10465000CF90BF90AF909F908F90089520E030E072
:1046600048EC52E4C701B6016DCF8F929F92AF9292
:10467000BF92CF92DF92EF92FF92CF93FC01C08066
:10468000D180E280F38020E030E04AE754E4C701C3
:10469000B6010F94D7324B015C0120E030E0A90154
:1046A000C701B6010F94723220E030E040EA50E4D6
:1046B00087FF04C020E030E040EA50ECC501B401BF
:1046C0000F94FA3820E030E040E251E40F94D639FC
:1046D0000F943E3A6B017C018BE2F7FE09C0F09427
:1046E000E094D094C094C11CD11CE11CF11C8DE25B
:1046F0008093C60CC701B60120E137E240E050E0EC
:104700000F94BE388AE0882E912CA12CB12CCA01BE
:10471000B901A50194010F94BE38605D6093C70C88
:10472000C701B60128EE33E040E050E00F94BE38F8
:10473000CA01B901A50194010F94BE38605D609370
:10474000C80CC701B60124E630E040E050E00F9409
:10475000BE38CA01B901A50194010F94BE38605D4D
:104760006093C90C8EE28093CA0CC701B601A50103
:1047700094010F94BE38C62FCA01B901A501940156
:104780000F94BE38605D6093CB0CC05DC093CC0CC1
:1047900086EC9CE0CF91FF90EF90DF90CF90BF90A0
:1047A000AF909F908F900895CF92DF92EF92FF92FB
:1047B000FC01C080D180E280F38020E030E0A901DC
:1047C000C701B6010F94723287FF69C0C701B601F5
:1047D000905820E030E040E251E40F94D73220E0DE
:1047E00030E040EA50E40F94FA3820E030E040E254
:1047F00051E40F94D6390F943E3AFB01E03187E241
:10480000F80708F453C0CF0160E177E20F94D33B7F
:1048100080E3860F8093C80CE83E83E0F80708F435
:1048200047C0CF0168EE73E00F94D33BCB016AE041
:1048300070E00F94D33B805D8093C90C80E2E43636
:10484000F10558F0CF0164E670E00F94D33BCB0143
:104850006AE070E00F94D33B805D8093CA0C80E2E5
:10486000EA30F10558F02AE030E0CF01B9010F94A9
:10487000D33BCB01B9010F94D33B805D8093CB0C2C
:10488000CF016AE070E00F94D33B805D8093CC0C45
:1048900088EC9CE0FF90EF90DF90CF90089520E0AF
:1048A00030E040E251E4C701B60197CF80E2B2CFD9
:1048B00080E2C2CF8F929F92AF92BF92CF92DF924F
:1048C000EF92FF92FC01C080D180E280F38020E073
:1048D00030E048EC52E4C701B6010F94D7324B01E7
:1048E0005C0120E030E0A901C701B6010F947232EB
:1048F00020E030E040EA50E487FF04C020E030E0F0
:1049000040EA50ECC501B4010F94FA3820E030E0E1
:1049100040E251E40F94D6390F943E3A9B018BE26A
:1049200037FF05C022273327261B370B8DE28093E4
:10493000C70CC90168EE73E00F94E73BCB01EAE0D6
:10494000F0E0BF010F94E73B805D8093C80CC90184
:1049500064E670E00F94E73BCB01BF010F94E73BA7
:10496000805D8093C90CC901BF010F94E73B282FDC
:10497000CB01BF010F94E73B805D8093CA0C8EE2B0
:104980008093CB0C205D2093CC0C87EC9CE0FF90B7
:10499000EF90DF90CF90BF90AF909F908F90089551
:1049A0008F929F92AF92BF92CF92DF92EF92FF923F
:1049B000CF93FC01C080D180E280F38020E030E022
:1049C0004AE754E4C701B6010F94D7324B015C01AA
:1049D00020E030E040E251ECC701B6010F947232A2
:1049E000181654F420E030E048EC52E4C701B60158
:1049F0000F94203B87FD86C020E030E0A901C7016D
:104A0000B6010F94723287FF6EC060E070E080EAFA
:104A100090ECA50194010F94FA3820E030E040E2D8
:104A200051E40F94D6390F943E3A6B017C01F7FCA8
:104A30005FC020E137E240E050E00F94BE38CA0189
:104A4000B9012AE030E040E050E00F94BE38605DEC
:104A50006093C70CC701B60128EE33E040E050E098
:104A60000F94BE389AE0892E912CA12CB12CCA014A
:104A7000B901A50194010F94BE38605D6093C80C24
:104A8000C701B60124E630E040E050E00F94BE38A4
:104A9000CA01B901A50194010F94BE38605D60930D
:104AA000C90C8EE28093CA0CC701B601A50194011E
:104AB0000F94BE38C62FCA01B901A50194010F9405
:104AC000BE38605D6093CB0CC05DC093CC0C87ECAE
:104AD0009CE0CF91FF90EF90DF90CF90BF90AF9090
:104AE0009F908F90089560E070E080EA90E491CF0D
:104AF000F094E094D094C094C11CD11CE11CF11C32
:104B00006DE2A6CF20E030E0A901C701B6010F9405
:104B1000723287FF6AC060E070E080EA90ECA50125
:104B200094010F94FA3820E030E040E251E40F9411
:104B3000D6390F943E3A4B015C0120E030E0A901E8
:104B4000C701B6010F94203B87FD0BC020E030E089
:104B500040E251E4C701B6010F94723260E287FD72
:104B600013C0B7FC47C0C501B40128EE33E040E0F4
:104B700050E00F94BE38CA01B9012AE030E040E0AD
:104B800050E00F94BE38605D6093C80CC501B4015D
:104B900024E630E040E050E00F94BE388AE0C82EB2
:104BA000D12CE12CF12CCA01B901A70196010F9477
:104BB000BE38605D6093C90C8EE28093CA0CC5015B
:104BC000B401A70196010F94BE38C62FCA01B901DE
:104BD000A70196010F94BE38605D6093CB0CC05D59
:104BE000C093CC0C88EC9CE074CF60E070E080EA6D
:104BF00090E495CFB094A09490948094811C911CE3
:104C0000A11CB11C6DE2C0CF9C0197FF26C0EE270E
:104C1000FF27E81BF90B2D398FEF38070CF05DC02B
:104C20008DE28093C90CCF0164E670E00F94E73BFE
:104C3000CB012AE030E0B9010F94E73B805D80931F
:104C4000CA0CCF01B9010F94E73BCB01B9010F9416
:104C5000E73B805D8093CB0C2AC0283E83E0380779
:104C6000B4F1C90168EE73E00F94E73BCB01EAE0D1
:104C7000F0E0BF010F94E73B805D8093C90CC90150
:104C800064E670E00F94E73BCB01BF010F94E73B74
:104C9000805D8093CA0CC901BF010F94E73BCB0133
:104CA000BF010F94E73B805D8093CB0CF901CF01EE
:104CB0006AE070E00F94E73B805D8093CC0C89EC58
:104CC0009CE008958DE237FDC5CF80E2C3CFF901A6
:104CD00080E2243631050CF0A4CF80E28093C90C29
:104CE0008093CA0CEA30F1056CF38DE237FF80E265
:104CF0008093CA0CCF016AE070E00F94E73B605DDF
:104D00006093CB0CD4CF9C01EAE0F0E0BF010F949C
:104D1000E73B805D8093CC0C2A303105CCF0CB0191
:104D2000BF010F94E73B805D8093CB0C24363105A7
:104D300094F0C90164E670E00F94E73BCB01BF013A
:104D40000F94E73B805D8093CA0C8AEC9CE0089549
:104D50008CEC9CE008958BEC9CE008959C0197FD01
:104D60002DC080E2243631055CF0C90164E670E0B4
:104D70000F94E73BCB016AE070E00F94E73B805D66
:104D80008093CA0C80E22A3031055CF0EAE0F0E062
:104D9000C901BF010F94E73BCB01BF010F94E73B73
:104DA000805D8093CB0CC9016AE070E00F94E73B13
:104DB000805D8093CC0C8AEC9CE008953195219520
:104DC00031098DE2DDCF282F80E2243628F0822FB2
:104DD00064E60F94C73B805D8093CA0C90E22A3052
:104DE00040F03AE0822F632F0F94C73B0F94C73BEC
:104DF000905D9093CB0C822F6AE00F94C73B905D3F
:104E00009093CC0C8AEC9CE0089524E6829FC0012C
:104E1000112481589F4F6FEF70E00F94E73B262FCE
:104E200081E3643609F080E28093C90C90E22A3075
:104E300040F03AE0822F632F0F94C73B0F94C73B9B
:104E4000905D9093CA0C822F6AE00F94C73B905DEF
:104E50009093CB0C85E28093CC0C89EC9CE0089578
:104E6000FC01A081B1811C92A281B3818C918F5FE2
:104E70008C930280F381E02D90818CE0989F800DCF
:104E80001124E6ECF6E113AE84AF089580918C0C0A
:104E90008093380D08956091350270913602072E87
:104EA000000C880B990B0F9478322AE037ED43E21F
:104EB0005CE30F94D732209133073091340740914F
:104EC0003507509136070F94D7326093660270937E
:104ED000670280936802909369020895CF93DF93ED
:104EE000EC01CB01BA010F9478320F94433A6883F6
:104EF000DF91CF910895CF93DF93EC01CB01BA01FD
:104F00000F9478320F94433A6883DF91CF910895DC
:104F10000F9478320F94433A862F77CF2CEA35ECF2
:104F200047E25EE36091C9037091CA038091CB03AD
:104F30009091CC030F94D639609313167093141686
:104F4000809315169093161608952CEA35EC47E2D7
:104F50005EE36091CD037091CE038091CF03909179
:104F6000D0030F94D73260930F167093101680936E
:104F70001116909312160895809196169091971697
:104F8000891B8F7071F490913E1792FB882780F9EE
:104F900092FD08C081E090914707913019F080E0C0
:104FA000089581E00895CF93DF93EC01CB01BA011E
:104FB0000F94783220E030E048EC51E40F94D7327F
:104FC0000F94433A688379838A839B83DF91CF91DF
:104FD0000895CF93DF93EC01CB01BA010F9478329F
:104FE00020E030E048EC52E40F94D7320F94433A7B
:104FF000688379838A839B83DF91CF910895CF93D0
:10500000DF9300D01F92CDB7DEB70F9478322AE03D
:1050100037ED43E25CE30F94D73269837A838B8365
:105020009C83CE01019621DB0F900F900F900F9083
:10503000DF91CF910895CF93DF93EC01CB01BA01BB
:105040000F9478322AE037ED43E25CE30F94D732D5
:10505000688379838A839B83DF91CF910895CF936F
:10506000DF93EC01CB01BA010F9478322AE037EDDF
:1050700043E25CE30F94D732688379838A839B830E
:10508000DF91CF910895CF93DF93EC01CB01BA016B
:105090000F9478322DEC3CEC4CEC5DE30F94D7325E
:1050A000688379838A839B83DF91CF910895CF931F
:1050B000DF9300D01F92CDB7DEB70F9478322DEC7E
:1050C0003CEC4CEC5DE30F94D73269837A838B839D
:1050D0009C83CE01019618DA0F900F900F900F90DD
:1050E000DF91CF910895CF93DF93EC01CB01BA010B
:1050F0000F94783220E030E048EC51E40F94D7323E
:10510000688379838A839B83DF91CF910895CF93BE
:10511000DF9300D01F92CDB7DEB70F94783220E036
:1051200030E048EC51E40F94D73269837A838B8363
:105130009C83CE01019638DB0F900F900F900F905B
:10514000DF91CF910895CF93DF93EC01CB01BA01AA
:105150000F94783220E030E048EC52E40F94D732DC
:10516000688379838A839B83DF91CF910895CF935E
:10517000DF9300D01F92CDB7DEB70F94783220E0D6
:1051800030E048EC52E40F94D73269837A838B8302
:105190009C83CE01019608DB0F900F900F900F902B
:1051A000DF91CF910895CF93DF93EC01CB01BA014A
:1051B0000F9478322FE632E143E85AE30F94D73266
:1051C000688379838A839B83DF91CF910895CF93FE
:1051D000DF9300D01F92CDB7DEB70F9478322AE06C
:1051E00037ED43E25CE30F94D73269837A838B8394
:1051F0009C83CE010196D4DB0F900F900F900F90FF
:10520000DF91CF910895CF93DF93EC01CB01BA01E9
:105210000F947832688379838A839B83DF91CF915F
:1052200008950F9478320F94433A862FCCCD0F9483
:1052300078320F943E3ACB0191CDCF93DF93EC01BE
:10524000CB01BA010F9478320F943E3A7983688388
:10525000DF91CF910895CF93DF9300D01F92CDB708
:10526000DEB70F94433A0F94763269837A838B8347
:105270009C83CE01019698DA0F900F900F900F90BB
:10528000DF91CF9108950F94783220E030E048EC20
:1052900052E40F94D732DFCF0F94783220E030E021
:1052A00048EC51E40F94D732D6CFCF92DF92EF92F1
:1052B000FF926B017C0120E030E0A9010F94723273
:1052C00020E030E040E05FE387FF04C020E030E012
:1052D00040E05FEBC701B6010F94FA380F943E3AF5
:1052E000CB01FF90EF90DF90CF9038CD0F947832C4
:1052F000DCCFFC0184910895FC018081089508951C
:1053000090E080E008950C94A9CC6091DA0370914C
:10531000DB038091DC039091DD0341E00C9462801B
:105320000C945BCCCF92DF92EF92FF920F931F937E
:105330000F942A190091DF031091E0032091E103FB
:105340003091E2036B017C01C01AD10AE20AF30A30
:105350009701860137FD11C02091DE03209520932F
:10536000DE036A547C4F8F4F9F4F6093DF0370932F
:10537000E0038093E1039093E20381E09091DE03E8
:10538000911101C080E01F910F91FF90EF90DF908D
:10539000CF900895CF92DF92EF92FF92CF93C82FD4
:1053A0000F942A196B017C0124EA30E74DE75FE393
:1053B0006091D6037091D7038091D8039091D9035F
:1053C0000F94723287FD18C08AEF90E0A0E0B0E041
:1053D0008C0D9D1DAE1DBF1D8093F6039093F703AA
:1053E000A093F803B093F903C0930502CF91FF9007
:1053F000EF90DF90CF90089580E090E0DC01E8CF5F
:105400000D943619EF92FF920F931F938091DB0C4E
:105410000EEC1CE0882311F00BED1CE08AE6E82E70
:105420008FE0F82E2CE63FE041EE5FE269E77FE097
:1054300080E89FE00F94271D1F910F91FF90EF9040
:105440000895EF92FF920F931F9380EAE82E8DE06C
:10545000F82E10E000E022EA3DE041ED5FE26DEA67
:105460007DE082EB9DE00F94271D1F910F91FF902F
:10547000EF900895EF92FF920F931F9384E0E82E30
:1054800088E0F82E10E000E026E038E04AE05EE236
:1054900068E178E08FE198E00F94271D1F910F914C
:1054A000FF90EF90089590911B0D81E089270C9457
:1054B000EF7F67E175E480E00D94331563E175E4F7
:1054C00081E00D9433156FE075E482E00D9433159F
:1054D0006EE773E483E00D943315CF93DF9300D030
:1054E0001F92CDB7DEB70F9478322FE632E143E852
:1054F0005AE30F94D73269837A838B839C83CE01DE
:1055000001960F9496120F900F900F900F90DF91CD
:10551000CF9108950F931F93CF93DF93CDB7DEB74D
:105520006E970FB6F894DEBF0FBECDBF809101021B
:105530008F93809100028F931F921F9286EF95E0C8
:105540009F938F938E010F5F1F4F1F930F930F94A5
:105550000B3281E080930804C8010E9416911092DA
:1055600008040FB6F894DEBF0FBECDBF6E960FB61F
:10557000F894DEBF0FBECDBFDF91CF911F910F9189
:105580000895DF92EF92FF920F931F93CF93DF93D3
:10559000EC01D62E1CAD0BAD7C0184E0E80EF11CB5
:1055A000E98DFA8DC7011995412F480F2D2D602FD8
:1055B000C7010F942F1F9BAD890F8BAF81E090E047
:1055C000DF91CF911F910F91FF90EF90DF900895A1
:1055D0008F929F92AF92BF92CF92DF92EF92FF9203
:1055E0000F931F93CF93DF93EC018B017A018A8590
:1055F0009B858617970731F0888199810F94091E42
:105600001B870A8788859985019641F50C81DA8088
:105610008E81D80EA880B980D5015596ED91FC9168
:10562000C5011995080F10E0F70121917F012111A3
:105630004FC08E819F81810F911D9F838E8390E04B
:1056400080E0DF91CF911F910F91FF90EF90DF905D
:10565000CF90BF90AF909F908F900895CE80DF80C5
:10566000F701008110E0002321F1A880B980602FAC
:10567000C5010F94611ED50151961C9111954701EA
:10568000BFEF8B1A9B0AF40181914F01882351F0DF
:10569000D50150969C91190F082F682FC5010F94C2
:1056A000611EF1CF003281F0F50183899189890F64
:1056B000180FC10ED11C288539852C153D0508F021
:1056C000A5CF81E090E0BDCFD50150968C91F0CF71
:1056D000402F6D2DC5010F942F1FD80E180FA4CF8A
:1056E000EF92FF920F931F93CF93DF9300D000D0E0
:1056F00000D01F921F92CDB7DEB77C012091D1035D
:10570000422F022E000C550B8091D2038230A1F162
:10571000833059F180E29AE05F932F939F938F93A8
:105720008E010F5F1F4F1F930F930F940B32C70112
:105730000E944BCC81E080930804C8010E9416911E
:10574000109208040F900F900F900F900F900F90F1
:105750002B960FB6F894DEBF0FBECDBFDF91CF9171
:105760001F910F91FF90EF9008958CE29AE027FD32
:10577000D3CF87E19AE0D0CF85E39AE0CDCFE09117
:10578000D10387E1E802F0011124E050FA4E808550
:105790009185A6CFAF92BF92CF92DF92EF92FF9208
:1057A0001F93CF93DF93CDB7DEB760970FB6F89412
:1057B000DEBF0FBECDBF80910B0D90910C0DA0915F
:1057C0000D0DB0910E0D89839A83AB83BC838091BC
:1057D0000F0D9091100DA091110DB091120D8D83B0
:1057E0009E83AF83B8878091130D9091140DA09183
:1057F000150DB091160D89879A87AB87BC8780916C
:10580000170D9091180DA091190DB0911A0D8D875B
:105810009E87AF87B88B0E945BCC0E94E8B783EF6E
:10582000A82E81E1B82E99E1E92E92E0F92E27EE1B
:10583000C22E21E1D22E10E0812F0E94ACDBF501B7
:1058400085919591A591B491F70180839183A2836D
:10585000B383F60185919591A591B491F701848365
:105860009583A683B7831F5FF4E0AF0EB11C88E079
:10587000E80EF11CE4E0CE0ED11C1330E9F6609185
:10588000AF067091B0068091B1069091B20640E0EB
:105890000E9462800E9425810E94A9CC40E150E0D4
:1058A0006BE07DE0CE0101960F940A3C892B89F0D4
:1058B00060960FB6F894DEBF0FBECDBFDF91CF91DB
:1058C0001F91FF90EF90DF90CF90BF90AF900C941E
:1058D000C7EA60960FB6F894DEBF0FBECDBFDF916A
:1058E000CF911F91FF90EF90DF90CF90BF90AF903E
:1058F00008950F931F9380914707813019F50F94F6
:105900002A1900913B0710913C0720913D073091E7
:105910003E07601B710B820B930B28EE33E040E0D7
:1059200050E00F949C3860913F0770914007809140
:10593000410790914207620F731F841F951F1F91AB
:105940000F91089560914307709144078091450736
:1059500090914607D6CF1092470710923B071092BE
:105960003C0710923D0710923E0710924307109299
:105970004407109245071092460710923F07109275
:1059800040071092410710924207089580914707FF
:10599000813079F482E0809347070F942A1960934D
:1059A000430770934407809345079093460781E02F
:1059B000089580E008958F929F92AF92BF92CF9208
:1059C000DF92EF92FF920F931F93CF93DF93CDB7A8
:1059D000DEB72C970FB6F894DEBF0FBECDBF8B019C
:1059E00040E050E068EC72E44D835E836F8378871B
:1059F00040E050E060EA70E449875A876B877C8713
:105A0000813009F1823009F443C08090130D9090E9
:105A1000140DA090150DB090160DF801C084D1841E
:105A2000E284F3849601A701B401C5010F94723298
:105A300087FD02C064017501C601D70189839A837D
:105A4000AB83BC8348C0BE01675F7F4FC801089627
:105A50000E94B2DFB8016C5F7F4FAE014B5F5F4FBA
:105A6000C8010E9491DF0E94C7EA2C960FB6F894F5
:105A7000DEBF0FBECDBFDF91CF911F910F91FF9081
:105A8000EF90DF90CF90BF90AF909F908F90089550
:105A9000F80120853185428553856091130D709101
:105AA000140D8091150D9091160D0F94FA386B011D
:105AB0007C0120E030E047E853E40F94723287FD28
:105AC00006C0C12CD12C87E8E82E83E4F82EC982C9
:105AD000DA82EB82FC82BE01675F7F4FCE010196C6
